:100000000C9439010C946A010C946A010C946A01F5
:100010000C946A010C946A010C946A010C946A01B4
:100020000C946A010C946A010C946A010C946A01A4
:100030000C946A010C94900A0C946A010C946A0165
:100040000C946A010C94C40B0C946A010C946A0120
:100050000C946A010C946A010C946A010C94F00AE5
:100060000C946A010C946A010C946A010C946A0164
:100070000C946A010C946A010C946A010C946A0154
:100080000C94960B0C946A010C946A010C946A010E
:100090000C946A010C946A010C946A010C946A0134
:1000A0000C946A010C946A010C94680B0C946A011C
:1000B0000C946A010C946A010C946A010C943A0B3A
:1000C0000C946A010C946A010C946A010C946A0104
:1000D0000C946A010C946A010C946A010C946A01F4
:1000E0000C946A010C94C5020C940E080C947802CE
:1000F0000C9480020C94C9090C94F6020C9493029F
:100100000C948E020C948A020C9494020C94680253
:100110000C9465020C9498020C945D020C941111DD
:100120000C9486020C9461020C9472020C946E0280
:100130000C947C020C9453020C940F080C945902FA
:100140000C947B030C94FF010C941A100000210006
:10015000240027002A002D00300033000101000098
:10016000040107010A0100002000230026002900E5
:100170002C002F00320000010000030106010901DC
:1001800000000A0B02090C0D0E0807030401000011
:10019000000000000000000000000000000000005F
:1001A000000000000000000000000000121110001C
:1001B000000000000000000000000000000000003F
:1001C000000000000000010210202008081020405C
:1001D000102040800201020108040201010204080B
:1001E0001020408080402010080402018004020199
:1001F00080402010080402010804020101020408E2
:1002000010204080010204081020408000002200DD
:10021000250028002B002E003100340002010000D0
:10022000050108010B010505050507050808080873
:10023000020202020A0A080804040404010101017E
:100240000101010103030303030303030407070779
:100250000C0C0C0C0C0C0C0C02020202060606061E
:10026000060606060B0B0B0B0B0B0B0B02001A10F2
:10027000111111241FBECFEFD1E2DEBFCDBF00E0D0
:100280000CBF13E0A0E0B2E0ECE8F7E200E00BBF47
:1002900002C007900D92AA3BB107D9F725E0AAEB5F
:1002A000B3E001C01D92A636B207E1F711E0C8E342
:1002B000D1E000E006C021970109802FFE010E94D5
:1002C0008D11C733D10780E00807A9F70E94F20B10
:1002D0000C94B4130C94000096E0899FD001112473
:1002E000A552BB4F90967C936E935F9791E0919649
:1002F0009C939197E0914805F091490590914705AD
:10030000992339F0309751F0811108C08091F7049A
:100310001994309719F05C968C91FACF0895CF928A
:10032000DF92EF92FF920F931F9396E0899FF00167
:100330001124E552FB4F11A2278D30A12130310548
:1003400051F178F02230310509F451C023303105E4
:1003500009F452C01F910F91FF90EF90DF90CF9062
:1003600008956623B9F361E070E00E946C012FB735
:10037000F8948091D7049091D804A091D904B091B9
:10038000DA042FBF8093330590933405A09335058D
:10039000B0933605DFCF9FB7F894C090D704D090C4
:1003A000D804E090D904F090DA049FBF009133059F
:1003B000109134052091350530913605C01AD10AC7
:1003C000E20AF30A009145051091460530E020E06D
:1003D0000C151D052E053F0550F462E070E01F91DD
:1003E0000F91FF90EF90DF90CF900C946C01611112
:1003F000B1CF63E070E0F3CF70E060E0F0CFAF9298
:10040000BF92CF92DF92EF92FF920F931F93CF9301
:10041000DF936C017B018B01040F151FEB015E0163
:10042000AE18BF08C017D10759F06991D601ED91F8
:10043000FC910190F081E02DC6011995892B79F787
:10044000C501DF91CF911F910F91FF90EF90DF9049
:10045000CF90BF90AF900895FC0144815581608199
:1004600071818AE495E00C94FF018150823108F09B
:100470005AC0E82FF0E08827EF5BFD4F8F4F0C94B8
:100480008D1161026502530259025D0293026802F6
:100490006E02720278027C02800286028A02930255
:1004A0008E0294029802809180008F778093800062
:1004B0000895809180008F7DF9CF80918000877FA3
:1004C000F5CF84B58F7784BD089584B58F7DFBCF3C
:1004D0008091B0008F778093B00008958091B00034
:1004E0008F7DF9CF809190008F7780939000089551
:1004F000809190008F7DF9CF80919000877FF5CF1C
:100500008091A0008F778093A00008958091A00033
:100510008F7DF9CF8091A000877FF5CF809120015A
:100520008F77809320010895809120018F7DF9CFEE
:1005300080912001877FF5CFCF93DF93282F30E084
:10054000F901E058FE4F8491F901EA53FE4FD4912E
:10055000F901EA5DFD4FC491CC23A1F081110E9405
:100560003502EC2FF0E0EE0FFF1FEA59FE4FA59188
:10057000B491EC91ED2381E090E009F480E0DF910B
:10058000CF91089580E090E0FACF862F0C949C02E2
:100590001F93CF93DF93282F30E0F901E058FE4FEF
:1005A0008491F901EA53FE4FD491F901EA5DFD4FC0
:1005B000C491CC23A9F0162F81110E943502EC2F93
:1005C000F0E0EE0FFF1FE45FFD4FA591B4918FB7F0
:1005D000F894EC91111108C0D095DE23DC938FBF05
:1005E000DF91CF911F910895DE2BF8CF862F642FD6
:1005F0000C94C80290912C0289130DC0ECE6F2E035
:10060000E4919FEF90932C02E230E1F038F4EE2376
:1006100081F0E13089F060E00C94C802E43049F1E7
:1006200010F1E530C1F7909173009D7F90937300B6
:10063000F2CF10926E00EFCF90916F009D7F90935C
:100640006F00E9CF909170009D7F9093700091E0D2
:100650009093B0009091B100987F94609093B10016
:100660001092B300D8CF909171009D7F909371004C
:10067000D2CF909172009D7F90937200CCCFCF9398
:10068000DF9390E0FC01EA53FE4F24918A5D9D4F79
:10069000FC0184918823C9F090E0880F991FFC0128
:1006A000E45BFE4FA591B491FC01E45FFD4FC59161
:1006B000D49161110DC09FB7F8948C91209582233D
:1006C0008C938881282328839FBFDF91CF91089541
:1006D000623051F49FB7F8943C91822F8095832328
:1006E0008C93E8812E2BEFCF8FB7F894EC912E2BC3
:1006F0002C938FBFEACF862F642F0C943F036F9209
:100700007F928F929F92AF92BF92CF92DF92EF92A1
:10071000FF920F931F93CF93DF9381E08093470560
:100720008FB7F8944091D7045091D8046091D904C0
:100730007091DA048FBF8091370590913805A091B0
:100740003905B0913A05481B590B6A0B7B0B809118
:10075000430590914405B0E0A0E084179507A607F3
:10076000B70708F01DC1C0E080914105C81760F4CB
:10077000E0913D05F0913E05EC0FF11D62E08081B6
:100780000E943F03CF5FF0CF712C812C912C54013C
:10079000839480914205781608F05FC0072D10E021
:1007A000E0913F05F0914005E00FF11F61E080818D
:1007B0000E943F03E0913F05F0914005E00FF11FDB
:1007C00060E080810E94C802D501C401072C04C0EA
:1007D000880F991FAA1FBB1F0A94D2F76C017C01D6
:1007E000E094F094612C809141056816F8F4C62DD0
:1007F000D0E0E0913D05F0913E05EC0FFD1F8081BA
:100800000E949C022496CC0FDD1FC552DB4F892B22
:1008100041F4888199818C299D29998388836394E7
:10082000E2CF888199818E219F21F7CFE0913F050A
:10083000F0914005E00FF11F61E080810E94C80245
:1008400080913F0590914005080F191F60E0F80165
:1008500080810E943F0373949CCFCBEDD4E0FE01D6
:100860008FEF9FEF278D30A1232B21F4148E968FCD
:10087000858F11A2369625E0E731F20799F7F12C22
:1008800096E0D92E80914105F81608F050C0E12C71
:100890000F2D10E0000F111F0D511B4F209142052D
:1008A000E21608F042C0F801608171810E2C02C08E
:1008B000769567950A94E2F7F29E900111242E0D29
:1008C000311DEBEDF4E080E0458D568D24173507A2
:1008D00009F46AC08F5F36968A30B1F760FF23C093
:1008E000EBEDF4E090E080E0448D411117C0E09121
:1008F0003B05F0913C05E20FF31F4081D89EF001CB
:10090000D99EF00D1124E552FB4F448F368F258F71
:1009100010A2178E61E00E948F0105C001963696E5
:100920008A30910509F7E394B9CFF394ABCF80E017
:1009300099A19111892F2696F5E0C731DF07C1F7FC
:100940009FB7F8944091D7045091D8046091D9048E
:100950007091DA049FBF4093370550933805609338
:10096000390570933A058823D9F08091FC048823D7
:10097000B9F08091FA049091FB04019789F4809179
:10098000F704DF91CF911F910F91FF90EF90DF90CF
:10099000CF90BF90AF909F908F907F906F90089571
:1009A0001092470580E0EDCF6170B5CFCF93809175
:1009B0002C02863121F08F3F59F1CF910895ECE65A
:1009C000F2E0C491C7FDF9CF61E086E10E943F03E8
:1009D000CC2309F4F0C0C23009F004C18091B10009
:1009E000887F83608093B1008CE78093B3008FEFA2
:1009F0009FEFDC018093CB049093CC04A093CD04B3
:100A0000B093CE0480917000826080937000D5CF47
:100A100086E180932C02ECE6F2E0C4918C2FCF3F6C
:100A200061F2C23009F468C060F4CC2379F1C130BE
:100A300009F444C087FDC1CF61E086E10E943F0315
:100A4000CACFC43009F499C008F478C0C53091F712
:100A500010922001109221018091210188608093E1
:100A6000210180912101816080932101ECE3F2E07A
:100A7000E491F0E0EE0FFF1FE45FFD4F859194914C
:100A8000ECEDF1E0E491E093B7049ECF14BC15BC0B
:100A900084B5826084BD85B5816085BDECE3F2E0FC
:100AA000E491F0E0EE0FFF1FE45FFD4F859194911C
:100AB000ECEDF1E0E491E093BE0486CF109280006B
:100AC00010928100809181008860809381008091E4
:100AD0008100816080938100ECE3F2E0E491F0E03A
:100AE000EE0FFF1FE45FFD4F85919491ECEDF1E077
:100AF000E491E093BD0468CF1092B0001092B10071
:100B00008091B00082608093B0008091B1008160DC
:100B10008093B100ECE3F2E0E491F0E0EE0FFF1F10
:100B2000E45FFD4F859194919093BC048093BB0446
:100B3000ECEDF1E0E491E093BA0446CF109290001E
:100B40001092910080919100886080939100809133
:100B50009100816080939100ECE3F2E0E491F0E099
:100B6000EE0FFF1FE45FFD4F85919491ECEDF1E0F6
:100B7000E491E093B904C3E027CF1092A000109253
:100B8000A1008091A10088608093A1008091A100C4
:100B900081608093A100ECE3F2E0E491F0E0EE0FDD
:100BA000FF1FE45FFD4F85919491ECEDF1E0E4913E
:100BB000E093B80409CF85B5887F836085BD8DE358
:100BC00087BD8FEF9FEFDC018093D3049093D40413
:100BD000A093D504B093D60480916E008260809378
:100BE0006E00EBCEC130E9F480918100887F816096
:100BF000809381008FE99FE0909389008093880023
:100C00008FEF9FEFDC018093CF049093D004A093EB
:100C1000D104B093D20480916F00826080936F0002
:100C2000CCCEC330E9F480919100887F81608093BD
:100C300091008FE99FE090939900809398008FEF47
:100C40009FEFDC018093C7049093C804A093C9046C
:100C5000B093CA0480917100826080937100ADCE20
:100C6000C430E9F48091A100887F81608093A10065
:100C70008FE99FE09093A9008093A8008FEF9FEFEA
:100C8000DC018093C3049093C404A093C504B09383
:100C9000C604809172008260809372008ECEC5304F
:100CA000E9F480912101887F8160809321018FE99F
:100CB0009FE090932901809328018FEF9FEFDC0143
:100CC0008093BF049093C004A093C104B093C20466
:100CD000809173008260809373006FCEC23091F078
:100CE00034F4CC2369F0C13009F067CE83CFC4302F
:100CF00009F4BECF0CF49DCFC53009F05ECED7CF3E
:100D00008FE95ECF8FE971CE3FB7F8948091C00331
:100D10009091C103A091C203B091C30326B5A89BD3
:100D200005C02F3F19F00196A11DB11D3FBFBA2F7D
:100D3000A92F982F8827BC01CD01620F711D811D3D
:100D4000911D42E0660F771F881F991F4A95D1F7C2
:100D500008958F929F92AF92BF92CF92DF92EF92BF
:100D6000FF924B015C010E9484066B017C010E9492
:100D700084066C197D098E099F09683E73408105C0
:100D80009105A8F321E0821A9108A108B10888EE24
:100D9000C80E83E0D81EE11CF11C81149104A1044B
:100DA000B10429F7FF90EF90DF90CF90BF90AF9004
:100DB0009F908F900895DC01EC91E03390F51196AF
:100DC0008C91119728E830E0281B310987FD339575
:100DD000220F331F220F331F6217730784F01296FE
:100DE0008C9128E532E0281B310987FD3395220FCD
:100DF000331F220F331F621773070CF49B0122501D
:100E00003109220F331F4FB7F8948E2F90E0FC0169
:100E1000EE0FFF1FE80FF91FEC53FC4F32832183C5
:100E20004FBF08958130910581F41092800082E0D7
:100E3000809381001092850010928400B19A809175
:100E40006F00826080936F0008958230910569F48D
:100E50001092900082E08093910010929500109281
:100E6000940088BB8093710008958330910569F4E4
:100E70001092A00082E08093A1001092A500109231
:100E8000A40089BB809372000895892B61F41092AD
:100E9000200182E08093210110922501109224010B
:100EA0008ABB809373000895AF92BF92CF92DF9276
:100EB000EF92FF920F931F93CF93DF936B017A0111
:100EC000EC01C554DC4F28813CE0389F8001399FFC
:100ED000100D1124A090BA03B12C27FF1FC0FB01F5
:100EE0001182108288818F5F888388819801280F02
:100EF000311D87FD3A95F6012A153B051CF48881C2
:100F00008C30C4F180819181049680349C4908F42E
:100F100073C0F60180819181049670C08881980128
:100F2000280F311D87FD3A952A153B05DCF688818F
:100F3000A801480F511D87FD5A95FA01EE0FFF1FBA
:100F4000E40FF51FEC53FC4F808186FFCBCF8881E7
:100F5000F801E80FF11D87FDFA95CF01EE0FFF1F95
:100F6000E80FF91FEC53FC4F808160E08F730E9403
:100F7000C802B8CF808191812881A801420F511DFC
:100F800027FD5A959A01FA01EE0FFF1FE20FF31F9A
:100F9000EC53FC4F21813281820F931FF701918323
:100FA000808388819801280F311D87FD3A95F901CA
:100FB000EE0FFF1FE20FF31FEC53FC4F808186FF03
:100FC00022C08881080F111D87FD1A95F801EE0FC8
:100FD000FF1FE00FF11FEC53FC4F808161E08F7326
:100FE000DF91CF911F910F91FF90EF90DF90CF9005
:100FF000BF90AF900C94C80280E49CE9F701918304
:1010000080838FEF8883DF91CF911F910F91FF90A5
:10101000EF90DF90CF90BF90AF900895089590E04B
:1010200080E008958F929F92AF92BF920F931F938B
:10103000CF93DF93CDB7DEB7A1970FB6F894DEBF9D
:101040000FBECDBF19A2423008F44AE08E010F5DF9
:101050001F4F842E912CB12CA12CA50194010E942C
:101060005F11E62FB901CA01EA3044F5E05DD8010D
:10107000EE938D01232B242B252B79F790E080E034
:10108000109769F0FD0101900020E9F73197AF0159
:101090004A1B5B0BBD018AE495E00E94FF01A1960B
:1010A0000FB6F894DEBF0FBECDBFDF91CF911F9179
:1010B0000F91BF90AF909F908F900895E95CD7CF2C
:1010C000FC0101900020E9F73197AF01481B590B53
:1010D000BC018AE495E00C94FF01FC0180819181C0
:1010E000009711F00C9431120895CF93DF93EC0127
:1010F00060E08E810E94C80261E08E810E94C80279
:1011000060E08E810E94C8028BE891E00197F1F7C0
:10111000DF91CF910895CF92DF92EF92FF920F93DC
:101120001F93CF93DF936C017C0187E0E80EF11CE5
:10113000D0E0C0E0062F10E0B8010C2E02C075957B
:1011400067950A94E2F76170F70181917F010E942F
:10115000C8022196C430D10579F7C601DF91CF913D
:101160001F910F91FF90EF90DF90CF900C94750836
:10117000CF92DF92EF92FF920F931F93CF93DF9363
:10118000EC01F62E642F8C810E94C8028D818F3F66
:1011900019F060E00E94C8020F2D10E08F8584FFD7
:1011A00025C06E0187E0C80ED11CF12CE12CB801DE
:1011B0000E2C02C0759567950A94E2F76170F601EE
:1011C00081916F010E94C802FFEFEF1AFF0A88E0C9
:1011D000E816F10461F7CE01DF91CF911F910F91D5
:1011E000FF90EF90DF90CF900C947508B80184E0E9
:1011F000759567958A95E1F7CE010E948B086F2D52
:10120000CE01DF91CF911F910F91FF90EF90DF9072
:10121000CF900C948B0840E0682F8AE495E00C9402
:10122000B80881E00E940B098BE39FE10197F1F779
:101230000895CF93DF93823029F4909159059860F7
:101240009093590580935D0510925E0580E480932C
:101250005F0580E18093600580E58093610561E032
:1012600080914E050E943F0380914F058F3F19F0FA
:1012700061E00E943F0361E0809150050E943F03BE
:10128000CAE4D5E09E012A5435408091590584FD79
:101290000BC084E090E021962817390744F461E000
:1012A0008E810E943F03EECF88E090E0F4CF8BE385
:1012B0009DE00197F1F760E080914E050E94C80221
:1012C00060E0809150050E94C80280914F058F3FD9
:1012D00019F060E00E94C8028091590584FD34C075
:1012E00063E08AE495E00E948B08CBE4D6E4CE016B
:1012F0000197F1F763E08AE495E00E948B0821975B
:10130000F1F763E08AE495E00E948B0883E592E0C0
:101310000197F1F762E08AE495E00E948B088091E2
:10132000590580620E940B0984E080935A058CE085
:101330000E940B090E94110982E080935B0586E000
:10134000DF91CF910C940B0980620E940B098BE412
:1013500096E40197F1F78091590580620E940B098C
:1013600083E592E00197F1F78091590580620E9430
:101370000B09D5CF90915D05691710F06FEF690FDC
:10138000E62FF0E0E65BFA4F9489890F80680C94B1
:101390000B0941E00E94B80881E090E0089541E027
:1013A000682F8AE495E00E94B80881E090E00895F3
:1013B0000F931F93CF93DF93EC018881998100975E
:1013C00059F02A813B812617370730F081E0DF9101
:1013D000CF911F910F9108958B016F5F7F4F0E94F6
:1013E000BA12009759F0998388831B830A832C8152
:1013F0003D81232B59F7FC011082E8CF80E0E7CF35
:10140000CF93DF93EC0170E060E00E94D80928815F
:10141000398181110FC02115310519F0C9010E94D0
:101420003112198218821D821C821B821A82DF915E
:10143000CF9108951D821C8263E573E0C901DF919D
:10144000CF910C94AD13EF92FF920F931F93CF9314
:10145000DF931F921F92CDB7DEB78C0169831A828A
:10146000FC01E480F580FFEFEF1AFF0AB7010E944C
:10147000D809882381F0F801208131818481958108
:10148000BE016F5F7F4F820F931F0E94AD13F80163
:10149000F582E48281E00F900F90DF91CF911F9150
:1014A0000F91FF90EF900895EF92FF920F931F938B
:1014B000CF93DF93EC017B01198218821B821A8281
:1014C0001D821C82FB0101900020E9F731978F01FA
:1014D000061B170BB8010E94D80928813981811198
:1014E00013C02115310519F0C9010E94311219826A
:1014F00018821D821C821B821A82DF91CF911F915C
:101500000F91FF90EF9008951D830C83B701C901DF
:10151000DF91CF911F910F91FF90EF900C94AD133D
:101520001F920F920FB60F9211240BB60F922F93AA
:101530003F934F935F936F937F938F939F93AF935B
:10154000BF93EF93FF938091CB049091CC04A09133
:10155000CD04B091CE04892B8A2B8B2BE1F1909195
:10156000BA04E091BB04F091BC0480818927808398
:101570008091CB049091CC04A091CD04B091CE0485
:10158000181619061A061B069CF48091CB0490913C
:10159000CC04A091CD04B091CE040197A109B1096A
:1015A0008093CB049093CC04A093CD04B093CE044D
:1015B000FF91EF91BF91AF919F918F917F916F912B
:1015C0005F914F913F912F910F900BBE0F900FBEE7
:1015D0000F901F90189580912C020E94FA02E8CF7C
:1015E0001F920F920FB60F9211242F933F938F9358
:1015F0009F93AF93BF938091D7049091D804A0910B
:10160000D904B091DA043091BF0323E0230F2D37C2
:1016100058F50196A11DB11D2093BF038093D704F7
:101620009093D804A093D904B093DA048091C003B6
:101630009091C103A091C203B091C3030196A11D73
:10164000B11D8093C0039093C103A093C203B093D4
:10165000C303BF91AF919F918F913F912F910F90B5
:101660000FBE0F901F90189526E8230F0296A11D1C
:10167000B11DD2CF1F920F920FB60F9211240BB64D
:101680000F922F933F934F935F936F937F938F931B
:101690009F93AF93BF93EF93FF9348E251E064E2CF
:1016A00071E090E080E00E945407FF91EF91BF91BC
:1016B000AF919F918F917F916F915F914F913F91EA
:1016C0002F910F900BBE0F900FBE0F901F9018958B
:1016D0001F920F920FB60F9211240BB60F922F93F9
:1016E0003F934F935F936F937F938F939F93AF93AA
:1016F000BF93EF93FF9348EA50E064EA70E083E021
:1017000090E00E945407FF91EF91BF91AF919F919C
:101710008F917F916F915F914F913F912F910F909A
:101720000BBE0F900FBE0F901F9018951F920F9237
:101730000FB60F9211240BB60F922F933F934F9336
:101740005F936F937F938F939F93AF93BF93EF9329
:10175000FF9348E950E064E970E082E090E00E9485
:101760005407FF91EF91BF91AF919F918F917F911E
:101770006F915F914F913F912F910F900BBE0F9002
:101780000FBE0F901F9018951F920F920FB60F92D9
:1017900011240BB60F922F933F934F935F936F9348
:1017A0007F938F939F93AF93BF93EF93FF9348E8FB
:1017B00050E064E870E081E090E00E945407FF91FF
:1017C000EF91BF91AF919F918F917F916F915F91B9
:1017D0004F913F912F910F900BBE0F900FBE0F9026
:1017E0001F901895CF93DF9300D000D0CDB7DEB710
:1017F000789484B5826084BD84B5816084BD85B5EC
:10180000826085BD85B5816085BD80916E008160F7
:1018100080936E001092810080918100826080939D
:10182000810080918100816080938100809180009F
:101830008160809380008091B10084608093B100CA
:101840008091B00081608093B000809191008260AF
:1018500080939100809191008160809391008091AC
:1018600090008160809390008091A10082608093BD
:10187000A1008091A10081608093A1008091A000CF
:1018800081608093A000809121018260809321017A
:1018900080912101816080932101809120018160EC
:1018A0008093200180917A00846080937A008091F7
:1018B0007A00826080937A0080917A0081608093C0
:1018C0007A0080917A00806880937A001092C1003B
:1018D00082E00E9419090E94110960E080E00E94E4
:1018E000BA0989E492E00E94600861E080E00E9409
:1018F000BA098AE592E00E9460088091AE048033C4
:1019000008F043C061E08DE00E943F038091AE0487
:10191000282F30E0F901EE0FFF1FE20FF31FEC5309
:10192000FC4F9081907C9D6090831092AF04109248
:10193000B0042CE0622F0E94811190E0829FB001E0
:10194000112430E020E0AB01420F531FFA01EE0FEB
:10195000FF1FE40FF51FEC53FC4F408146FD07C00D
:101960002F5F3F4F2C30310571F70E941207E09135
:10197000AE048E2F90E0FC01EE0FFF1FE80FF91F61
:10198000EC53FC4F80818064808360ED77E08EEAC9
:1019900094E00E94DB0600E914E02CE0F22E3CE02B
:1019A000E32ED8018C91803308F048C061E08F2D80
:1019B0000E943F03F8018081282F30E0F901EE0FEB
:1019C000FF1FE20FF31FEC53FC4F9081907C2F2DF3
:1019D0002F73922B9083D80111961C921197129617
:1019E0001C926E2D0E948111A82FB0E08E9DA00147
:1019F000112430E020E0BA01620F731FFB01EE0FEB
:101A0000FF1FE60FF71FEC53FC4F808186FD08C0D7
:101A10002F5F3F4F2C30310571F7CD010E94120727
:101A2000D801EC918E2F90E0FC01EE0FFF1FE80F24
:101A3000F91FEC53FC4F80818064808360ED77E078
:101A4000C8010E94DB060D5F1F4FFA94B2E0FB1243
:101A5000A8CF61E086E10E943F0361E088E20E9436
:101A60003F0361E088E20E94C80219E261E0812F31
:101A70000E943F0360E0812F0E94C8021F5F133362
:101A8000A9F764E670E080E090E00E94A90670E1AA
:101A9000872E912CECE22E2EE2E03E2EF3E04F2E2C
:101AA000512CA0E06A2EA0E07A2E0E947F03182F0E
:101AB000882309F494C08B3209F098C00E94110960
:101AC00060E080E00E94BA098BE692E00E94600824
:101AD00061E080E00E94BA0963E573E0CE010196FF
:101AE0000E94540A0E947F03182F8823D9F3082EDE
:101AF000000C990BC0970A9750F48CE792E00E9473
:101B00006008612FCE0101960E94230AEBCF1D339E
:101B1000C1F52D813E818091B5049091B6042817BE
:101B20003907B1F489819A816091B1047091B2044E
:101B3000009709F4DAC16115710539F4232B09F412
:101B4000E2C1DC018C9190E0DBC10E94A413D8C1FA
:101B50000E94110960E080E00E94BA0982EC92E0E4
:101B60000E94600861E080E00E94BA0983ED92E083
:101B70000E94600860ED77E080E090E00E94A90696
:101B800018C0133699F40E94110960E080E00E94A9
:101B9000BA098BE692E00E94600861E080E00E9452
:101BA000BA09CE0101960E94000A9CCF1A3209F0B0
:101BB00099CFCE0101960E946D080E94110960E044
:101BC00080E00E94BA0989E492E00E94600861E026
:101BD00080E00E94BA098AE592E00E9460086114E0
:101BE000710409F462CF0E9400005FCF082E000C40
:101BF000990BC0970A9708F0D5C00E94110960E0C0
:101C000080E00E94BA0984EE92E00E946008812F71
:101C10000E94CF0963E573E0CE0101960E94540A49
:101C2000612FCE0101960E94230A0E947F03182F84
:101C30008823D9F3082E000C990BC0970A9720F43B
:101C4000812F0E94CF09ECCF1D3309F0A4C08981F8
:101C50009A810097C9F00E9423118B010B50110942
:101C60000A301105A8F00E94110960E080E00E948E
:101C7000BA098CEE92E00E94600861E080E00E9468
:101C8000BA098DEF92E021C060E070E0CB01E5CFB2
:101C90007801EE0CFF1C9701285E3D4F5901D901D8
:101CA0008D919C9118161906DCF00E94110960E0D4
:101CB00080E00E94BA0988E093E00E94600861E039
:101CC00080E00E94BA0989E193E00E946008CE0199
:101CD00001960E942C026CED75E080E090E04ECF02
:101CE0000E94110960E080E00E94BA098AE293E054
:101CF0000E94600861E080E00E94BA09B6E0B09FEF
:101D0000C001B19F900D1124FC01EC5AFB4F6F01F3
:101D1000848195819401281B390BC901969587957B
:101D200061E00E94BA09C6010E942C02E00EF11E79
:101D3000C70180579B4F7C0168EE73E00E94DB0671
:101D4000075D61E0802F0E94C802D501CD90DC9034
:101D5000B1E0CB1AD108F501D182C0820E94D6042D
:101D600064E670E080E090E00E94A90686E10E94AF
:101D7000FA0264E873E080E090E00E94A90660ED5A
:101D800077E0C7010E94DB061C141D040CF04DC156
:101D900060E0802F48C11A3209F40BCF133609F0E6
:101DA00044CF07CF1F3209F008CF0E94110960E02D
:101DB00080E00E94BA098BE393E00E94600861E032
:101DC00080E00E94BA098CE493E00E94600863E519
:101DD00073E0CE0101960E94540A0E947F03182FDF
:101DE0008823D9F3082E000C990BC0970A9748F462
:101DF000812F0E94CF09612FCE0101960E94230AF4
:101E0000ECCF1D3309F054C089819A81009709F401
:101E10004BC00E9423118B010B5011090A30110590
:101E200008F021CF0E941109F6E0F09FC001F19F58
:101E3000900D11249C012C5A3B4F7901D901149625
:101E40008D919C91F401E81BF90BCF019695879534
:101E500060E00E94BA09C7010E942C0261E080E0A4
:101E60000E94BA098CE493E00E946008000F111FE1
:101E7000F801E85EFD4FC080D1800D2C000CEE080B
:101E8000FF084AE0C701B601F7FE0BC08DE20E94D1
:101E9000CF0966277727CB016C197D098E099F0929
:101EA0004AE00E94120817CF60E070E0CB01B3CF88
:101EB0001A3209F47ECE133609F08FCF0E94110931
:101EC00060E080E00E94BA098BE393E00E94600822
:101ED00061E080E00E94BA098CE493E00E9460080F
:101EE000CE0101960E94000A78CF6115710559F064
:101EF000232B49F0FB01808190E091958195910918
:101F0000892B09F025CE0E94110960E080E00E9433
:101F1000BA098EE792E00E94600861E080E00E94CA
:101F2000BA098FE892E00E94600868EE73E08EEADA
:101F300094E00E94DB060E94D60464EF71E080E02A
:101F400090E00E94A90660E088E20E94C80200E9D1
:101F500014E068EE73E0C8010E94DB060D5F1F4FBE
:101F6000B4E00E3A1B07A9F764EF71E080E090E05F
:101F70000E94A90686E10E94FA0219E261E0812F1F
:101F80000E94C8021F5F1333C9F70E94110960E065
:101F900080E00E94BA0980EA92E00E94600861E055
:101FA00080E00E94BA0981EB92E00E9460080E94E2
:101FB0007F038823E1F38B32D1F708E112E060E977
:101FC000E62E64E0F62E60ED77E0C7010E94DB06A6
:101FD000F801419251928F01F3E0EF0EF11C2016AF
:101FE000310689F719E260E0812F0E94C8021F5F65
:101FF0001333C9F70E94D60464E670E080E090E0F5
:102000000E94A90686E10E94FA0260E971E080E080
:1020100090E00E94A90660ED77E08EEA94E00E94CD
:10202000DB0661E088E20E94C80264EF71E080E0B4
:1020300090E0A4CD64E573E081EB94E00E94540A43
:102040006CE573E084E594E00E94540A61E673E075
:102050008AE594E00E94540A6BE673E080E694E01F
:102060000E94540A65E773E086E694E00E94540AF1
:1020700064E873E08CE694E00E94540A69E873E037
:1020800082E794E00E94540A6FE873E088E794E0E6
:102090000E94540A6BE973E08EE794E00E94540AB0
:1020A00062EA73E084E894E00E94540A6EEA73E006
:1020B0008AE894E00E94540A8091BA03803308F0C1
:1020C000AAC091E0980F9093BA038093AE0490E079
:1020D000FC01EE0FFF1FE80FF91FEC53FC4F88EBDC
:1020E0009BE092838183E0E9F4E02EEA34E04FEF55
:1020F00068EB7BE08091BA03803308F090C091E0F8
:10210000980F9093BA03808390E0DC01AA0FBB1F65
:10211000A80FB91FAC53BC4F12967C936E931197C6
:1021200033962E173F0731F710924D0510924C054C
:1021300081E492E090934B0580934A0580E180937F
:102140004E058FEF80934F0581E18093500582E12A
:102150008093510583E18093520584E18093530578
:1021600085E1809354051092550510925605109202
:102170005705109258051092590581E00E941909DF
:102180001092DD041092E1041092E0041092E20437
:1021900087E392E09093DC048093DB04E7EFF4E0C4
:1021A0001082148213821582369685E0E333F80795
:1021B000B9F784E092E090933E0580933D0580E07E
:1021C00092E09093400580933F0584E08093410521
:1021D0008093420588E092E090933C0580933B0514
:1021E0008AE090E0909344058093430584EF91E06A
:1021F0009093460580934505109249051092480535
:1022000010923705109238051092390510923A0550
:102210001092470508958FEF8093AE0464CF4083FA
:102220007FCFCF93DF93C0E9D4E02697CE010E9401
:102230006D0884E0C435D807C1F781EB94E0DF91E5
:10224000CF910C946D081F93FC0199278827BC013E
:10225000E89411911032E9F3193010F01E30C8F3F0
:102260001B3251F01D3249F4689406C00E944A1195
:10227000610F711D811D911D119110531A30B0F322
:102280003EF490958095709561957F4F8F4F9F4F4D
:102290001F910895592F482F372F262F660F771F2C
:1022A000881F991F660F771F881F991F620F731F62
:1022B000841F951F660F771F881F991F0895A1E23D
:1022C0001A2EAA1BBB1BFD010DC0AA1FBB1FEE1FB0
:1022D000FF1FA217B307E407F50720F0A21BB30BFB
:1022E000E40BF50B661F771F881F991F1A9469F777
:1022F00060957095809590959B01AC01BD01CF01D3
:102300000895991B79E004C0991F961708F0961B51
:10231000881F7A95C9F780950895EE0FFF1F881FD3
:102320008BBF0790F691E02D19940F931F93CF93D5
:10233000DF938230910510F482E090E0E091640533
:10234000F091650530E020E0B0E0A0E0309799F42E
:102350002115310509F44AC0281B390B24303105F9
:10236000D8F58A819B816115710589F1FB01938301
:102370008283FE0111C0408151810281138148177F
:102380005907E0F04817590799F4109761F0129631
:102390000C93129713961C933296CF01DF91CF9135
:1023A0001F910F9108950093640510936505F4CF74
:1023B0002115310551F04217530738F0A901DB010F
:1023C0009A01BD01DF01F801C1CFEF01F9CF909370
:1023D000650580936405CDCFFE01E20FF31F819365
:1023E00091932250310939832883D7CF20916205F8
:1023F00030916305232B41F420912F02309130025C
:10240000309363052093620520912D0230912E02B6
:102410002115310541F42DB73EB74091310250915D
:102420003202241B350BE0916205F0916305E2173F
:10243000F307A0F42E1B3F0B2817390778F0AC01E7
:102440004E5F5F4F2417350748F04E0F5F1F5093C4
:10245000630540936205819391939FCFF0E0E0E0A4
:102460009CCFCF93DF930097E9F0FC013297138262
:102470001282A0916405B0916505ED0130E020E085
:102480001097A1F420813181820F931F2091620562
:10249000309163052817390709F061C0F09363058F
:1024A000E0936205DF91CF910895EA01CE17DF072F
:1024B000E8F54A815B819E0141155105B1F7E901BB
:1024C000FB83EA8349915991C40FD51FEC17FD078F
:1024D00061F4808191810296840F951FE9019983AF
:1024E0008883828193819B838A83F0E0E0E0129667
:1024F0008D919C9113970097B9F52D913C9111976F
:10250000CD010296820F931F2091620530916305E1
:102510002817390739F6309751F510926505109252
:102520006405B0936305A0936205BCCFD383C283D7
:1025300040815181840F951FC817D90761F44E5F00
:102540005F4F88819981480F591F518340838A8149
:102550009B81938382832115310509F0B0CFF093DD
:102560006505E09364059ECFFD01DC01C0CF1382B9
:102570001282D7CF4F925F926F927F928F929F92EB
:10258000AF92BF92CF92DF92EF92FF920F931F9381
:10259000CF93DF938C01009799F4CB01DF91CF911A
:1025A0001F910F91FF90EF90DF90CF90BF90AF9071
:1025B0009F908F907F906F905F904F900C949511AB
:1025C000FC01E60FF71F9C0122503109E217F307C7
:1025D00008F4AEC0D901CD91DC911197C617D70789
:1025E00020F1C530D10578F0CE0104978617970702
:1025F00050F0C61BD70B2297C193D1936D937C9358
:10260000CF010E943112C801DF91CF911F910F912C
:10261000FF90EF90DF90CF90BF90AF909F908F9002
:102620007F906F905F904F9008955B01AC1ABD0A48
:102630004C018C0E9D1EA0916405B0916505512C36
:10264000412CF12CE12C109731F58091620590918D
:1026500063058815990509F05CC04616570608F011
:1026600058C080912D0290912E02009741F48DB7B1
:102670009EB74091310250913202841B950BE817AE
:10268000F90708F055C0F0936305E0936205F9017E
:1026900071836083B8CF8D919C91119712966C9045
:1026A000129713967C901397A815B90559F56C01EC
:1026B00042E0C40ED11CCA14DB0420F1AC014A195B
:1026C0005B09DA011296159780F06282738251835A
:1026D0004083D9016D937C93E114F10471F0D7012B
:1026E0001396FC93EE9312978ECF22968C0F9D1F1C
:1026F000F90191838083F301EFCFF0936505E093B7
:10270000640581CF4816590608F42C017D01D301D8
:102710009ACFCB010E9495117C01009749F0AE0140
:10272000B8010E949B13C8010E94311287016BCF30
:1027300010E000E068CFFB01DC0102C001900D92C7
:1027400041505040D8F70895FB01DC018D91019074
:1027500080190110D9F3990B0895FB01DC01019058
:102760000D920020E1F7089511E0C8E3D1E000E008
:1027700006C0802FFE010E948D112196011DC933D4
:0C278000D10780E00807A9F7F894FFCF0C
:10278C001F21232517191B1D3738392F3435362AAD
:10279C003132332D63303D2B030003000300030063
:1027AC00030003000300030003000300FF000066A6
:1027BC00058000000000007B03F602C5020000004B
:1027CC0000C909FF010F080E082057656C636F6D77
:1027DC006520746F20746865200056656E64696EA0
:1027EC0067204D616368696E652100454E54455202
:1027FC002050415353574F5244203A002A00202076
:10280C0020796F75277220696E21212020200020ED
:10281C00776169742061206D6F6D656E7420200086
:10282C0020207072657373202B207768656E2020D2
:10283C00002020796F7527726520646F6E652020EB
:10284C00200057524F4E472050415353574F52443C
:10285C0021210054525920414741494E204C4154AA
:10286C0045522100434F4445203A200020207468F3
:10287C00657265206973204E4F2020200020207047
:10288C00726F647563742000207765206172652017
:10289C006F7574206F662020002020746869732087
:1028AC0070726F64756374202000202068657265F7
:1028BC0020796F752061726520200020656E74652B
:1028CC00722074686520636F6465200020202020CE
:1028DC0020202000313233343536370043616B65AC
:1028EC000048616D6275726765720043686F636F53
:1028FC006C6174650043686F636F6C617465206D07
:10290C00696C6B004D696C6B00536E61636B0046B8
:10291C0072756974206A756963650053616E6479B8
:10292C00730047756D6D692063616E64790043684F
:0A293C006577696E672067756D000E
:00000001FF
